S01F0000474731315F5254434452565F554152544452565F546573742E7333372B
S113000000000820210200004D0200004D02000003
S11300104D0200004D0200004D0200004D020000A0
S11300204D0200004D0200004D0200004D02000090
S11300304D0200004D0200004D0200004D02000080
S1130040551600004D02000055060000ED0A0000A0
S11300504D0200002D3400004D0200004D0200004E
S11300604D0200004D0200004D0200004D02000050
S11300704D020000150B00004D0200004D0200006F
S11300804D0200004D0200004D0200004D02000030
S11300904D0200004D0200004D0200004D02000020
S11300A04D0200004D0200004D0200004D02000010
S11300B04D0200004D0200004D0200001511000029
S11300C04D0200004D0200004D0200004D020000F0
S11300D04D0200004D0200004D0200004D020000E0
S11300E04D0200004D0200004D0200004D020000D0
S11300F04D0200004D0200004D0200004D020000C0
S11301004D0200004D0200004D0200004D020000AF
S11301104D0200004D0200004D0200004D0200009F
S11301204D0200004D0200004D0200004D0200008F
S11301304D0200004D0200004D0200004D0200007F
S11301404D0200004D0200004D0200004D0200006F
S113015010B5054C237833B9044B13B10448AFF3FD
S113016000800123237010BDA803002000000000BC
S11301703C630000084B10B51BB108480849AFF3B5
S113018000800848036803B910BD074B002BFBD05F
S1130190BDE81040184700BF000000003C630000A9
S11301A0AC030020A003002000000000154B002B2E
S11301B008BF134B9D46A3F5803A00218B460F469A
S11301C01348144A121A06F034F80F4B002B00D0CF
S11301D098470E4B002B00D09847002000210400C4
S11301E00D000D48002802D00C48AFF3008005F044
S11301F0EFFF2000290005F087FC05F0D5FF00BFC4
S113020000000800000008200000000000000000BA
S1130210A8030020940A0020000000000000000051
S1130220064880470649074A074B9A42BEBF51F821
S1130230040B42F8040BF8E7FFF7B8FF31030000A2
S11302404863000000000020A4030020FEE700BF74
S113025080B582B000AF00F027F878600A4BD3F87D
S113026008210A4B13401B0A3B603B6801337A6840
S1130270B2FBF3F37B60064A7B6813607B68184625
S11302800837BD4680BD00BF00400E4000FF01009E
S11302900800002080B400AF024B1846BD465DF84C
S11302A0047B704700A24A0480B483B000AF164BAD
S11302B0D3F8943003F00703032B08D0042B02D0A7
S11302C0022B08D00BE0114B1B687B600BE04FF452
S11302D000437B6007E00E4B1B687B6003E00D4B23
S11302E01B687B6000BF084BD3F8003103F4F8535C
S11302F01B0A01337A68B2FBF3F318460C37BD4688
S11303005DF8047B704700BF00400E4004000020ED
S1130310000000200C00002080B400AF034B1B68D9
S11303201846BD465DF8047B704700BF00000020FE
S113033080B400AF054A054BD3F8883043F470030A
S1130340C2F88830BD465DF8047B704700ED00E0DC
S113035080B400AF4FF400431846BD465DF8047BFB
S1130360704700BF80B400AF4FF47A731846BD469F
S11303705DF8047B704700BF80B400AF034B1B687B
S11303801846BD465DF8047B704700BF040000209A
S113039080B584B000AF78603960214B1B7883F05E
S11303A00103DBB2002B01D01E4B34E07B68002B31
S11303B001D11D4B2FE004F00BFCB8600023FB605F
S11303C022E01A4AFB681B01134408331B7983F0AB
S11303D00103DBB2002B14D0FA687B681A60134A5D
S11303E0FB681B011344083301221A710F4AFB688E
S11303F01B01134400221A60B86804F0F9FB0023BF
S113040009E0FB680133FB60FB68172BD9DDB86892
S113041004F0EEFB064B18461037BD4680BD00BF06
S1130420C4030020028000F0018000F0C803002013
S1130430048000F080B584B000AF194A3B1D1068F9
S1130440186000233B7104F0C3FBB860154B1B78A4
S1130450002B04D0B86804F0CBFB134B1CE0114B09
S113046001221A70B86804F0C3FB0023FB6009E0A2
S11304700E4AFB681B011344083300221A71FB68FF
S11304800133FB60FB68172BF2DD0423FB713B1D7A
S1130490184604F077FF002318461037BD4680BD88
S11304A060620000C4030020038000F0C803002041
S11304B080B58CB008AFF860B9607A603B607B6847
S11304C000933B680193002302933B7E0393FB69F3
S11304D0049397F8203005937B6A0693BB6A0793CD
S11304E000200021FA68BB6800F022F90346184690
S11304F01037BD4680BD00BF80B582B000AF7860C4
S1130500124B1B7883F00103DBB2002B01D0104B9C
S113051017E07B68172B01D90E4B12E00E4A7B685B
S11305201B01134408331B7983F00103DBB2002B56
S113053001D00A4B05E07B681846002104F00CFF4B
S1130540002318460837BD4680BD00BFC403002001
S1130550028000F0018000F0C8030020078000F052
S113056080B582B000AF7860124B1B7883F0010332
S1130570DBB2002B01D0104B17E07B68172B01D99D
S11305800E4B12E00E4A7B681B01134408331B799F
S113059083F00103DBB2002B01D00A4B05E07B683A
S11305A01846012104F0D8FE002318460837BD463A
S11305B080BD00BFC4030020028000F0018000F071
S11305C0C8030020078000F080B483B000AF7860D7
S11305D039601A4B1B7883F00103DBB2002B01D086
S11305E0174B25E07B68172B02D83B68002B01D101
S11305F0144B1DE0144A7B681B01134408331B7918
S113060083F00103DBB2002B01D0104B10E0104B40
S11306101B6A7A68012101FA02F21340002B03D00D
S11306203B6801221A7002E03B6800221A70002322
S113063018460C37BD465DF8047B7047C4030020A0
S1130640028000F0018000F0C8030020078000F061
S11306500020004080B586B000AF324B1B6EFB60BB
S1130660304BDB6EFA681340FB60FB68002B00DA4A
S1130670FEE700237B6101233B614CE0FA683B69A0
S11306801340002B41D0274A3B6993667B691B01C9
S1130690254A1344BB60BB681B68002B35D0BB687C
S11306A09B685A1CBB689A60BB681B68BA689168EF
S11306B0BA685268786998470346002B14BF01232F
S11306C00023DBB283F00103DBB2FB71FB7903F09F
S11306D00103FB71BB685B7B012B16D1FB79002BFB
S11306E013D0124A7B695B01134403F108021379A6
S11306F06FF3410313710D4A7B695B01134403F1EA
S1130700180213796FF3410313717B6901337B6121
S11307103B695B003B617B69172BAFD91837BD463A
S113072080BD00BF00200040C80300204805002011
S113073090B58BB000AFBA607B600346FB730B4689
S1130740BB73884B1B7883F00103DBB2002B01D011
S1130750854B03E1BB68172B0FD8BB6B002B0CD068
S1130760FB6B002B09D0BB6CB3F5006F05DCFB7B86
S1130770012B04D13B6C002B01D17C4BEEE0BB6818
S11307801B017B4A13447B627B6A1B7B83F001035E
S1130790DBB2002B01D0774BE0E000233B61002368
S11307A03B7500237B750023BB750023FB75002379
S11307B03B7600237B760023BB760023FB76002365
S11307C03B7700237B77BB685B016B4A13443B6236
S11307D0BB7B002B23D13B6A00221A600433002226
S11307E01A60043300221A60043300221A600433AE
S11307F03A6A937843F0100393703A6AD37843F0DB
S11308003003D37097F8443083F00103DBB2002B3C
S113081028D03A6AD37843F00303D37022E03B6ACA
S113082000221A60043300221A60043300221A6082
S1130830043300221A6004333A6A937843F01003B5
S113084093703A6AD37843F00303D37097F8443033
S113085083F00103DBB2002B04D03A6AD37843F06F
S11308603003D3707B683B61BB6C9BB2013B9BB292
S1130870C3F30A0399B23A6A138861F30E1313801F
S1130880BA6B3B6A9A60FA6B3B6A5A6097F84C30D1
S113089003F00303D9B23A6AD37861F38303D370C4
S11308A0FB7B012B3AD13A6A137B43F001031373A8
S11308B03A6A137B43F0020313733A6AD368042140
S11308C061F39F03D3602C4ABB685B01134403F1BB
S11308D010023B6A14460FCB84E80F00264ABB681B
S11308E05B01134403F1180253686FF0030161F3D1
S11308F09F0353603A6C2049BB685B010B4410337F
S11309005A60BB7B012B09D1FA6B1B49BB685B01A5
S11309100B4418331A603A6C3B6A5A603B6D002BE7
S113092007D1FB7B002B04D13A6A93786FF304134D
S113093093707B6A3A6D1A607B6A7A6D5A607B6A3F
S113094000229A607B6AFA7B5A73BA6807F1100333
S1130950104619463A6A04F04DFD002318462C3718
S1130960BD4690BDC4030020028000F0018000F069
S1130970C8030020078000F04805002080B483B03D
S113098000AF0346FB71084997F907305B09FA7910
S113099002F01F02012000FA02F241F823200C3772
S11309A0BD465DF8047B704700E100E080B483B08D
S11309B000AF0346FB71094997F907305B09FA79DF
S11309C002F01F02012000FA02F2603341F82320F2
S11309D00C37BD465DF8047B704700BF00E100E0C2
S11309E080B483B000AF7860044A7B68C2F82434D2
S11309F00C37BD465DF8047B704700BF008008409B
S1130A0080B483B000AF074BD3F828347B60054B28
S1130A10D3F81C247B68134018460C37BD465DF898
S1130A20047B70470080084080B485B000AF7860D4
S1130A307B68FB60FB6893FAA3F3BB60BB68B3FA03
S1130A4083F318461437BD465DF8047B704700BF36
S1130A5080B500AF0D20FFF7A9FF0D20FFF78EFF33
S1130A600320FFF7A3FF0320FFF788FF80BD00BF2B
S1130A7080B584B000AF03463960FB7104F0A8F878
S1130A80F860FB7904493A6841F82320F86804F0D7
S1130A90AFF81037BD4680BD4808002080B584B04B
S1130AA000AF786019E07868FFF7BEFFF860FB6874
S1130AB0012202FA03F3DB431A467B6813407B608E
S1130AC0094AFB6852F82330BB60BB68002B04D092
S1130AD0FB68DAB2BB68104698477B68002BE2D10A
S1130AE01037BD4680BD00BF4808002080B582B0E5
S1130AF000AFFFF785FF024645F2555313407B6074
S1130B007868FFF76DFF7868FFF7C8FF0837BD46C0
S1130B1080BD00BF80B582B000AFFFF771FF024611
S1130B204AF6AA2313407B607868FFF759FF786878
S1130B30FFF7B4FF0837BD4680BD00BF80B483B063
S1130B4000AF0346FB71084997F907305B09FA794E
S1130B5002F01F02012000FA02F241F823200C37B0
S1130B60BD465DF8047B704700E100E080B483B0CB
S1130B7000AF0346FB71094997F907305B09FA791D
S1130B8002F01F02012000FA02F2603341F8232030
S1130B900C37BD465DF8047B704700BF00E100E000
S1130BA080B485B000AF78607B68002B04D07B688C
S1130BB0B3F5004F00D800BF7B68B3FA83F3C3F1E9
S1130BC01F03FB60FB6818461437BD465DF8047BC1
S1130BD0704700BF80B483B000AF7860054A7B687B
S1130BE004331B0113445B6818460C37BD465DF89B
S1130BF0047B70470020064080B483B000AF786067
S1130C003960064A7B6804331B0113443A685A600E
S1130C100C37BD465DF8047B704700BF00200640DA
S1130C2080B400AF034B9B681846BD465DF8047B57
S1130C30704700BF0020064080B483B000AF7860E6
S1130C40034A7B6813620C37BD465DF8047B70472A
S1130C500020064080B483B000AF78600549054B9E
S1130C605A6A7B68DB4313404B620C37BD465DF820
S1130C70047B70470020064080B483B000AF7860E6
S1130C800549054B5A6A7B6813434B620C37BD46D2
S1130C905DF8047B704700BF0020064080B483B039
S1130CA000AF064B5B6A7B60044B9A697B68134018
S1130CB018460C37BD465DF8047B7047002006409B
S1130CC080B586B000AF786000237B6100233B6170
S1130CD003F07EFFF86002E07B6901337B617B698E
S1130CE0032B0ADC16497A6913469B001344DB0084
S1130CF00B4418339B79002BEED17B69042B02D172
S1130D00104B3B6114E07B68002B0FD00C497A69CF
S1130D1013469B001344DB000B44183301229A71E1
S1130D207A697B681A6000233B6101E0064B3B61F2
S1130D30F86803F05DFF3B6918461837BD4680BD6F
S1130D4088080020011000F0041000F080B500AF06
S1130D50224B1B78002B01D000233CE01F4B0122C7
S1130D601A701F48012102F023FF1E48022103F0DC
S1130D70AFFA0820FFF714FF0346DAB21A4B1A71D0
S1130D801A48012102F014FF174804F03BFC01202B
S1130D90174904F009FC40F2FF70FFF75BFF40F2D3
S1130DA0FF70FFF749FF134B00229A601F20FFF7E3
S1130DB0DDFE1F20FFF7C2FE0F480021A02205F030
S1130DC038FA0E4B00221A700D4B00221A700D4B8C
S1130DD000221A600023184680BD00BF320900209B
S1130DE00005080005002000100000208009120002
S1130DF01C00002000200640880800203009002044
S1130E00310900202C090020B0B58EB000AFF86085
S1130E107A603B600B46FB7200233B63FB68032B49
S1130E2001D9B54B63E103F0D3FEF862B349FA6824
S1130E3013469B001344DB000B4418339B7983F067
S1130E400103DBB2002B04D0F86A03F0D1FEAC4BF3
S1130E504DE17B68002B0BD13B68002B03D03B6832
S1130E60F868B96C9847F86A03F0C2FE00233EE1C3
S1130E70FFF7D6FE7863A149FA6813469B00134432
S1130E80DB000B4418333A681A607B681A464FF04B
S1130E900003DD0345EA5245D40314F57A6245F1B3
S1130EA00003104619464FF4FA524FF0000304F0C1
S1130EB0ADFE02460B4610461946904CFA6813469E
S1130EC09B001344DB0023440833C3E90001FB7A8D
S1130ED0012B27D17B684FF47A7202FB03F1874818
S1130EE0FA6813469B001344DB0003440833D3E938
S1130EF00023F42303FB02F3CB1A18467F49FA6854
S1130F0013469B001344DB000B44103318607B49E9
S1130F10FA6813469B001344DB000B4410337A2217
S1130F205A6013E07549FA6813469B001344DB00CA
S1130F300B440833D3E90001704CFA6813469B0054
S1130F401344DB0023440833C3E900016B49FA6806
S1130F5013469B001344DB000B440833D3E90023FE
S1130F60501C43F10001654CFA6813469B0013447E
S1130F70DB002344C3E900016049FA6813469B007F
S1130F801344DB000B44183301221A715B49FA68DD
S1130F9013469B001344DB000B441833FA7ADA71CE
S1130FA05649FA6813469B001344DB000B44203374
S1130FB0BA6C1A60534B1B78002B04D0F86A03F008
S1130FC017FE002393E0504B1B68B3F1FF3F04D09E
S1130FD04D4B1B6801334C4A13604C4B1B7883F018
S1130FE00103DBB2002B2FD0494A7B6B1360042032
S1130FF0FFF722FE4149FA6813469B001344DB00C5
S11310000B44D3E90023C7E908236FF06403FB61B1
S1131010FB6918464FF00001D7E908238B4208BF4B
S1131020824201D2104619460346BB617A6BBB6902
S1131030134401201946FFF7DFFD0420FFF71CFECF
S1131040324B01221A7045E02F4B1B68012B41D112
S11310502A49FA6813469B001344DB000B441833F7
S113106000221A710420FFF7F5FD294B1B687A6BE7
S1131070D31A7B61786900F09FF800F001FA3B6BAA
S1131080002B09D11D49FA6813469B001344DB0069
S11310900B44183301221A713B6B01333B63786BA9
S11310A000F020FAFFF7BCFD7863194B1B687A6BDC
S11310B0D31A7B610120FFF78DFD0246144B1B6898
S11310C0D31A3B61114B1B78002B03D07A693B691F
S11310D09A42C7D80C4B1B68002B04D00A4B1B68E0
S11310E0013B094A1360F86A03F082FD00231846A5
S11310F03837BD46B0BD00BF021000F0880800209C
S1131100031000F0300900202C09002031090020D0
S11311102809002080B586B000AF03F059FD38617E
S1131120FFF7BCFDF860FB6823F005031846FFF7E2
S113113083FDFB6803F00403002B30D01B4B01221A
S11311401A70FFF76DFD78610420FFF783FD184BDB
S11311501B687A69D31ABB60B86800F02DF800F0F8
S11311608FF9786900F0BEF9FFF75AFD7861104BEA
S11311701B687A69D31ABB600120FFF72BFD024676
S11311800B4B1B68D31A7B600A4B1B78002B03D0D4
S1131190BA687B689A42D7D8044B00221A7038691F
S11311A003F026FD1837BD4680BD00BF300900207E
S11311B02809002031090020B0B586B000AF78605E
S11311C000237B6153E1AD497A6913469B001344C4
S11311D0DB000B44183300225A71A8497A6913467C
S11311E09B001344DB000B4418331B79002B00F0E5
S11311F03B81A2497A6913469B001344DB000B44EC
S1131200D3E90023796808464FF00001994208BFEA
S1131210904219D299497A6913469B001344DB0022
S11312200B44D3E900017B681A464FF00003801A8F
S113123061EB0301914C7A6913469B001344DB0074
S11312402344C3E900010FE18C497A6913469B00EA
S11312501344DB000B441833DB79002B0AD1874994
S11312607A6913469B001344DB000B4418330022B5
S11312701A71E4E07B6818464FF000017F4C7A69EC
S113128013469B001344DB002344D3E90023821A52
S113129061EB0303C7E9022378497A6913469B008B
S11312A01344DB000B440833D3E9004573497A69DE
S11312B013469B001344DB000B440833D3E900239B
S11312C0D7E9020104F0A2FC20462946801A61EB0A
S11312D003016A4C7A6913469B001344DB002344E0
S11312E0C3E9000165497A6913469B001344DB0096
S11312F00B4410331B68002B50DD60497A69134698
S11313009B001344DB000B44103359685B487A6933
S113131013469B001344DB00034410331B68194439
S113132056487A6913469B001344DB000344103388
S1131330596052497A6913469B001344DB000B44FD
S113134010335B68F32B7AD94C497A6913469B00B6
S11313501344DB000B44D3E90023501C43F1000188
S1131360464C7A6913469B001344DB002344C3E9CB
S1131370000142497A6913469B001344DB000B4485
S113138010335B68A3F1F4013C487A6913469B006F
S11313901344DB0003441033596050E037497A6941
S11313A013469B001344DB000B4410335968334845
S11313B07A6913469B001344DB00034410331B6813
S11313C0C91A2E487A6913469B001344DB00034470
S11313D01033596029497A6913469B001344DB0092
S11313E00B4410335B68F32B29D924497A691346DB
S11313F09B001344DB000B44D3E9002312F1FF30BC
S113140043F1FF311D4C7A6913469B001344DB0002
S11314102344C3E9000119497A6913469B00134424
S1131420DB000B4410335B68A3F1F40113487A69C1
S113143013469B001344DB000344103359600F49E7
S11314407A6913469B001344DB000B4418331B6872
S1131450002B09D009497A6913469B001344DB0029
S11314600B44183301225A717B6901337B617B6918
S1131470032B7FF7A8AE1837BD46B0BD88080020FF
S113148090B583B000AF00237B6022E014497A68F2
S113149013469B001344DB000B4418335B79002B89
S11314A014D00F497A6813469B001344DB000B44A5
S11314B018331C6878680A497A6813469B001344F9
S11314C0DB000B4420331B681946A0477B680133BB
S11314D07B607B68032BD9DD0C37BD4690BD00BF14
S11314E08808002080B58AB000AF78604FF0FF32E2
S11314F04FF0FF33C7E9062300237B6227E030491E
S11315007A6A13469B001344DB000B4418331B799F
S1131510002B19D02A497A6A13469B001344DB0036
S11315200B44D3E90001D7E90623994208BF90424E
S11315300AD223497A6A13469B001344DB000B4406
S1131540D3E90023C7E906237B6A01337B627B6A04
S1131550032BD4DD1B4B00221A70D7E90623B3F109
S1131560FF3F08BFB2F1FF3F27D0D7E90623C7E901
S113157004236FF06403FB60FB681A464FF000031A
S1131580D7E90401994208BF904201D202460B46B2
S1131590C7E906230C4A7B6813600420FFF74CFB61
S11315A0BA697B68134401201946FFF725FB054BF4
S11315B001221A700420FFF75FFB2837BD4680BD67
S11315C088080020310900202809002080B483B055
S11315D000AF7860034A7B68D3620C37BD465DF880
S11315E0047B704700300E4080B483B000AF786055
S11315F00549054B1A6B7B68DB4313400B630C37BF
S1131600BD465DF8047B704700300E4080B483B063
S113161000AF78600549054B1A6B7B6813430B6375
S11316200C37BD465DF8047B704700BF00300E40A8
S113163080B483B000AF064B1B6B7B60044B5A6ACB
S11316407B68134018460C37BD465DF8047B704731
S113165000300E4080B500AF00F002F880BD00BF3E
S113166080B582B000AFFFF7E3FF78607B68002BA2
S11316701CDA214B1B681B68002B12D01E4B1B6805
S11316801B683B601C4B1B6818460021082204F0B1
S1131690D0FD00F001F903461A463B6810460021CC
S11316A098474FF00040FFF791FF20E07B6803F07C
S11316B08043002B1BD0114B1B681B68002B12D0DE
S11316C00E4B1B681B683B600C4B1B6818460021C3
S11316D0082204F0AEFD00F0DFF803461A463B682A
S11316E01046012198474FF08040FFF76FFF00F04C
S11316F033F80837BD4680BD8809002084090020DE
S113170080B485B000AF0346FB71114B1A68FB79B6
S1131710DB00104981FB03014910DB17CB1AD31AF4
S1131720FB60FB6813F1800F03DA6FF07F03FB604B
S113173004E0FB687F2B01DD7F23FB60FB68DBB2E9
S11317405BB218461437BD465DF8047B704700BF92
S11317508C0900206766666680B582B000AF0023FE
S1131760FB7124E0FB79474A52F83330002B1BD03D
S1131770454B1B681B68002B06D1FB79DB00414AF3
S11317801344414A13600FE0FB793E4ADB001344E3
S11317901A793D4B1B681B799A4205D9FB79DB000A
S11317A0384A1344384A1360FB790133FB71FB79DF
S11317B0042BD7D9344B1B681B68002B12D0334A37
S11317C0324BDB6923F0FF03D36130492F4BDB69D4
S11317D02D4A126812791343CB614FF08040FFF712
S11317E015FF03E04FF08040FFF7FEFE0023FB717E
S11317F024E0FB79264A52F83330002B1BD0254BCA
S11318001B681B68002B06D1FB79DB00204A1344BC
S1131810204A13600FE0FB791D4ADB0013441A7958
S11318201C4B1B681B799A4205D2FB79DB00184AD2
S11318301344184A1360FB790133FB71FB79042BC1
S1131840D7D9144B1B681B68002B13D00F4A0F4BBE
S1131850DB6923F47F43D3610C490C4BDB690D4AEC
S11318601268127912021343CB614FF00040FFF764
S1131870CDFE03E04FF00040FFF7B6FE0837BD464B
S113188080BD00BF340900208409002000300E40D0
S11318905C0900208809002080B500AF044B1B6A56
S11318A0DBB21846FFF72CFF0346184680BD00BF85
S11318B000300E4080B483B000AF786039607B683C
S11318C03A689A640C37BD465DF8047B704700BFE4
S11318D080B485B000AF786039607B6803F104732D
S11318E0DA003B6813449B00FB60FB681B681846E6
S11318F01437BD465DF8047B704700BF80B485B0E3
S113190000AF786039607B6803F1C063FB60FB68FB
S11319103A681A601437BD465DF8047B704700BF0F
S113192080B485B000AF786039607B6803F1806370
S1131930FB60FB683A681A601437BD465DF8047BA7
S1131940704700BF80B582B000AF03463960FB71B9
S1131950FB79002B16D0FB79012B13D0FB79022BDA
S113196010D0FB79032B0DD0FB79042B0AD0FB7923
S1131970052B07D0FB79062B04D0FB79072B01D06C
S1131980FB79082BFA7913465B0013441B011C33C3
S113199003F1804303F5082318463968FFF798FFDD
S11319A0034618460837BD4680BD00BF80B582B0E7
S11319B000AF03463960FB71FB79002B16D0FB792D
S11319C0012B13D0FB79022B10D0FB79032B0DD004
S11319D0FB79042B0AD0FB79052B07D0FB79062B66
S11319E004D0FB79072B01D0FB79082BFA79134635
S11319F05B0013441B010C3303F1804303F50823FC
S1131A003A68012101FA02F218461146FFF788FFED
S1131A100837BD4680BD00BF80B582B000AF034625
S1131A203960FB71FB79002B16D0FB79012B13D0A5
S1131A30FB79022B10D0FB79032B0DD0FB79042BFF
S1131A400AD0FB79052B07D0FB79062B04D0FB7950
S1131A50072B01D0FB79082BFA7913465B0013445A
S1131A601B010C3303F1804303F508233A68012179
S1131A7001FA02F218461146FFF740FF0837BD4647
S1131A8080BD00BF90B585B002AF396011461A46DB
S1131A900346FB710B46BB7113467B71FA79BC7923
S1131AA07B7900933B7E0193104639683A6823465C
S1131AB003F0A2FA0C37BD4690BD00BF80B485B0D8
S1131AC000AF78600023FB6010E00D4AFB6852F819
S1131AD023305B7F1A467B689A4204D1084AFB682C
S1131AE052F8233006E0FB680133FB60FB68032BEC
S1131AF0EBD9002318461437BD465DF8047B7047C4
S1131B009409002080B582B000AF78607B6893F8B8
S1131B103130022B0AD17B685A7E7B685B7F10468A
S1131B201946FFF70FFF0346DBB200E00023184617
S1131B300837BD4680BD00BF80B586B000AF034600
S1131B40FB71FB791846FFF7B9FF78617B69002BBD
S1131B503ED07B6993F83130022B39D17869FFF795
S1131B60D1FF03461A467B691A757B695B7D022B9C
S1131B702ED17B6993F82E30DBB2002B28D10023C1
S1131B80FB737B695A6807F10F0310461946FEF789
S1131B901BFD38617B691B7D002B04D07B6993F8A6
S1131BA02F30002B09D07B69002283F82F207B691A
S1131BB05B681846FEF7D4FC0AE03B69002B07D1AA
S1131BC0FB7B002B04D07B695B681846FEF794FC12
S1131BD01837BD4680BD00BF80B584B000AF7860C3
S1131BE07B6893F83130022B2FD17B685B7D002B0F
S1131BF008D17B689A7E7B689B7F10461946FFF765
S1131C00D5FE4AE07B685B7D012B08D17B689A7E18
S1131C107B689B7F10461946FFF7FEFE3DE07B681C
S1131C201B7D002B08D17B689A7E7B689B7F1046C6
S1131C301946FFF7BBFE30E07B689A7E7B689B7F8A
S1131C4010461946FFF7E8FE27E07B6893F8313029
S1131C50012B22D17B681B7D002B0FD11123FB7339
S1131C60786801F019FB07F10F037868194601221F
S1131C7001F080FA786801F039FB0EE01323FB735E
S1131C80786801F009FB07F10F037868194601220F
S1131C9001F070FA786801F029FB00231846103728
S1131CA0BD4680BD80B586B000AFF860B9607A608B
S1131CB002F08EFF7861FB689B889AB2FB68DB8830
S1131CC09A4207D37B6800221A60786902F090FF79
S1131CD01D4B35E0FB681B889BB21A4613469B00DC
S1131CE013449B000833FA6813441846B968142255
S1131CF004F094FAFB681B889BB21A4613469B00B7
S1131D0013449B000833FA681A447B681A60FB6822
S1131D101B889BB20133FA68D28893FBF2F102FB71
S1131D2001F29B1A9AB2FB681A80FB689B889BB2EB
S1131D3001339AB2FB689A80786902F059FF002354
S1131D4018461837BD4680BD0A7000F080B584B0CF
S1131D5000AF7860396002F03BFFF8607B689B88D5
S1131D609BB2002B07D13B6800221A60F86802F08E
S1131D703FFF164B25E07B685B889BB21A461346EF
S1131D809B0013449B0008337A681A443B681A602A
S1131D907B685B889BB201337A68D28893FBF2F14B
S1131DA002FB01F29B1A9AB27B685A807B689B887B
S1131DB09BB2013B9AB27B689A80F86802F018FFE4
S1131DC0002318461037BD4680BD00BF0B7000F0DD
S1131DD080B584B000AF7860396002F0F9FEF86035
S1131DE07B689B889BB2002B07D13B6800221A605A
S1131DF0F86802F0FDFE0B4B10E07B685B889BB239
S1131E001A4613469B0013449B0008337A681A440D
S1131E103B681A60F86802F0EBFE0023184610379E
S1131E20BD4680BD0B7000F080B483B000AF786015
S1131E307B6893F83230002B14D17B681B68042232
S1131E40DA6000BF7B681B681B6903F00203002B88
S1131E50F8D07B681B687A681268526F42F00202FD
S1131E605A6720E07B6893F83230012B1BD100BF06
S1131E707B681B685B6C03F00203002BF8D17B6862
S1131E801B6804225A6000BF7B681B689B6803F0D0
S1131E900203002BF8D07B681B687A681268526DC5
S1131EA042F002025A650C37BD465DF8047B704768
S1131EB080B483B000AF78607B6893F83230002B35
S1131EC00CD17B681B687A681268526F22F0020298
S1131ED05A677B681B680822DA6018E07B6893F80D
S1131EE03230012B13D100BF7B681B685B6C03F09D
S1131EF00203002BF8D17B681B687A681268526D64
S1131F0022F002025A657B681B6808225A600C376B
S1131F10BD465DF8047B704790B58BB006AF786022
S1131F2039600023FB607B68012283F82D207B68E5
S1131F3093F83230002B04D17B681B683433FB6088
S1131F400EE07B6893F83230012B04D17B681B6868
S1131F502833FB6004E07B68002283F82D2017E01F
S1131F607B6859687B68DA683B681C683B685B6817
S1131F70184601230093019000230293064B039318
S1131F807B68049308461146FA682346FEF790FAE4
S1131F901437BD4690BD00BF9D1F000090B589B0A9
S1131FA000AFF860B9607A607B68FB61FB699A6A8C
S1131FB007F1100310461946FFF70AFFB861BB6921
S1131FC0214A934201D1012339E03B6900221A617D
S1131FD03B6900229A6002F0FBFD78613B69DB6893
S1131FE0002B08D03B69DC683B691A683B695B6875
S1131FF0F8690021A047FB699A6A07F110031046AB
S11320001946FFF7A3FEFB699B6A9B889BB2002BD2
S11320100DD0FB699A6A07F1100310461946FFF7C1
S1132020D7FE3B69F8691946FFF776FF03E0FB69C1
S1132030002283F82D20786902F0DAFD0123184686
S11320402437BD4690BD00BF0B7000F080B485B04E
S113205000AFF860B9607A60FB68002B01D10A4BCD
S11320600CE0BB68002B06D07B68002B03D07B6898
S1132070B3F5006F01D9054B00E00023184614376F
S1132080BD465DF8047B7047027000F0037000F0F9
S113209080B483B000AF786039607B681B688B4A7A
S11320A0934240F0B6803B681B7A002B25D03B68F6
S11320B01B7A012B1FD03B681B7A022B19D03B687B
S11320C01B7A032B13D03B681B7A042B0DD03B687F
S11320D01B7A052B07D03B681B7A062B01D10623FC
S11320E00CE0FF230AE0022308E0012306E00423B6
S11320F004E0022302E0042300E004237A68D37599
S11321003B685B7A002B25D03B685B7A012B1FD0A0
S11321103B685B7A022B19D03B685B7A032B13D0A4
S11321203B685B7A042B0DD03B685B7A052B07D0A8
S11321303B685B7A062B01D106230CE0FF230AE0FF
S1132140022308E0012306E0042304E0022302E062
S1132150042300E004237A6813763B681B7A002B7F
S113216025D03B681B7A012B1FD03B681B7A022BBE
S113217019D03B681B7A032B13D03B681B7A042BC2
S11321800DD03B681B7A052B07D03B681B7A062BC6
S113219001D10C230CE0FF230AE0002308E007230D
S11321A006E00D2304E00B2302E0072300E00A23EA
S11321B07A68D3763B685B7A002B25D03B685B7AE0
S11321C0012B1FD03B685B7A022B19D03B685B7AEA
S11321D0032B13D03B685B7A042B0DD03B685B7AEE
S11321E0052B07D03B685B7A062B01D10D230CE04D
S11321F0FF230AE0012308E0082306E00C2304E09F
S11322000A2302E0062300E00B237A68137700F028
S11322106DBC7B681B682E4A934240F0B9803B68D2
S11322201B7A002B25D03B681B7A012B1FD03B68FF
S11322301B7A022B19D03B681B7A032B13D03B6803
S11322401B7A042B0DD03B681B7A052B07D03B6807
S11322501B7A062B01D100230CE0FF230AE005239F
S113226008E0022306E0052304E0032302E003233D
S113227000E002237A68D3753B685B7A002B29D08F
S11322803B685B7A012B1FD03B685B7A022B19D029
S11322903B685B7A032B13D03B685B7A042B0DD02D
S11322A03B685B7A052B07D03B685B7A062B01D130
S11322B0002310E0FF230EE000230CE002230AE0D9
S11322C0052308E0032306E0032304E000000140A3
S11322D00004014002237A6813763B681B7A002BC2
S11322E025D03B681B7A012B1FD03B681B7A022B3D
S11322F019D03B681B7A032B13D03B681B7A042B41
S11323000DD03B681B7A052B07D03B681B7A062B44
S113231001D10E230CE0FF230AE0022308E001238D
S113232006E0062304E0072302E0002300E0002384
S11323307A68D3763B685B7A002B25D03B685B7A5E
S1132340012B1FD03B685B7A022B19D03B685B7A68
S1132350032B13D03B685B7A042B0DD03B685B7A6C
S1132360052B07D03B685B7A062B01D102230CE0D6
S1132370FF230AE0002308E0022306E0072304E029
S1132380062302E0012300E001237A681377ADE31A
S11323907B681B688C4A934240F09D803B681B7AA3
S11323A0002B1FD03B681B7A012B19D03B681B7A8A
S11323B0022B13D03B681B7A032B0DD03B681B7A8E
S11323C0042B07D03B681B7A052B01D105230AE0B7
S11323D0FF2308E0052306E0002304E0002302E0D5
S11323E0012300E002237A68D3753B685B7A002BF3
S11323F01FD03B685B7A012B19D03B685B7A022BB8
S113240013D03B685B7A032B0DD03B685B7A042BBB
S113241007D03B685B7A052B01D105230AE0FF2333
S113242008E0052306E0002304E0002302E0012382
S113243000E002237A6813763B681B7A002B1FD0D6
S11324403B681B7A012B19D03B681B7A022B13D0F3
S11324503B681B7A032B0DD03B681B7A042B07D0F7
S11324603B681B7A052B01D100230AE0FF2308E017
S1132470062306E00D2304E0072302E0032300E023
S113248002237A68D3763B685B7A002B1FD03B68C3
S11324905B7A012B19D03B685B7A022B13D03B6823
S11324A05B7A032B0DD03B685B7A042B07D03B6827
S11324B05B7A052B01D101230AE0FF2308E00723FF
S11324C006E00E2304E0082302E0042300E00323D3
S11324D07A6813770AE37B681B683C4A934240F0AE
S11324E0A2803B681B7A002B1FD03B681B7A012B10
S11324F019D03B681B7A022B13D03B681B7A032B41
S11325000DD03B681B7A042B07D03B681B7A052B44
S113251001D108230AE0FF2308E0062306E006238E
S113252004E0012302E0042300E000237A68D37569
S11325303B685B7A002B1FD03B685B7A012B19D078
S11325403B685B7A022B13D03B685B7A032B0DD07C
S11325503B685B7A042B07D03B685B7A052B01D17F
S113256008230AE0FF2308E0062306E0062304E02C
S1132570012302E0042300E000237A6813763B6819
S11325801B7A002B24D03B681B7A012B19D03B68A3
S11325901B7A022B13D03B681B7A032B0DD03B68AC
S11325A01B7A042B07D03B681B7A052B01D10C2323
S11325B00FE0FF230DE000230BE0062309E00323D3
S11325C007E0062305E000BF00080140000C0140BD
S11325D000237A68D3763B685B7A002B1FD03B6874
S11325E05B7A012B19D03B685B7A022B13D03B68D2
S11325F05B7A032B0DD03B685B7A042B07D03B68D6
S11326005B7A052B01D10D230AE0FF2308E00123A7
S113261006E0072304E0072302E0072300E0012388
S11326207A68137762E27B681B68954A934240F0AC
S113263085803B681B7A002B19D03B681B7A012BE1
S113264013D03B681B7A022B0DD03B681B7A032BFB
S113265007D03B681B7A042B01D1072308E0FF2332
S113266006E0082304E0082302E0032300E001233A
S11326707A68D3753B685B7A002B19D03B685B7A28
S1132680012B13D03B685B7A022B0DD03B685B7A3D
S1132690032B07D03B685B7A042B01D1072308E0A6
S11326A0FF2306E0082304E0082302E0032300E0FC
S11326B001237A6813763B681B7A002B19D03B6898
S11326C01B7A012B13D03B681B7A022B0DD03B687D
S11326D01B7A032B07D03B681B7A042B01D10423FC
S11326E008E0FF2306E0062304E0002302E00923B8
S11326F000E007237A68D3763B685B7A002B19D015
S11327003B685B7A012B13D03B685B7A022B0DD0BC
S11327103B685B7A032B07D03B685B7A042B01D1BF
S1132720052308E0FF2306E0072304E0012302E079
S11327300A2300E008237A681377D7E17B681B68D3
S1132740504A93426CD13B681B7A002B13D03B68F0
S11327501B7A012B0DD03B681B7A022B07D03B68F8
S11327601B7A032B01D1072306E0FF2304E0052392
S113277002E0002300E004237A68D3753B685B7AA7
S1132780002B13D03B685B7A012B0DD03B685B7A3E
S1132790022B07D03B685B7A032B01D1072306E0A9
S11327A0FF2304E0012302E0002300E004237A680D
S11327B013763B681B7A002B13D03B681B7A012BE2
S11327C00DD03B681B7A022B07D03B681B7A032B86
S11327D001D10A2306E0FF2304E00F2302E00623CD
S11327E000E008237A68D3763B685B7A002B13D029
S11327F03B685B7A012B0DD03B685B7A022B07D0D8
S11328003B685B7A032B01D10B2306E0FF2304E032
S1132810012302E0072300E009237A68137765E1C6
S11328207B681B68184A934240F0BB803B681B7A64
S1132830002B2BD03B681B7A012B1FD03B681B7AE3
S1132840022B19D03B681B7A032B13D03B681B7AED
S1132850042B0DD03B681B7A052B07D03B681B7AF1
S1132860062B01D1032312E0FF2310E005230EE021
S113287002230CE002230AE0002308E0042306E01C
S113288000100140001401400040014005237A6813
S1132890D3753B685B7A002B25D03B685B7A012BB0
S11328A01FD03B685B7A022B19D03B685B7A032B01
S11328B013D03B685B7A042B0DD03B685B7A052B05
S11328C007D03B685B7A062B01D104230CE0FF237D
S11328D00AE0052308E0022306E0022304E00023C3
S11328E002E0042300E005237A6813763B681B7A30
S11328F0002B25D03B681B7A012B1FD03B681B7A29
S1132900022B19D03B681B7A032B13D03B681B7A2C
S1132910042B0DD03B681B7A052B07D03B681B7A30
S1132920062B01D107230CE0FF230AE0012308E072
S1132930042306E00E2304E0032302E0002300E066
S113294006237A68D3763B685B7A002B25D03B68F4
S11329505B7A012B1FD03B685B7A022B19D03B6852
S11329605B7A032B13D03B685B7A042B0DD03B6856
S11329705B7A052B07D03B685B7A062B01D10423D5
S11329800CE0FF230AE0022308E0052306E00F23FE
S113299004E0042302E0012300E007237A681377AC
S11329A0A4E07B681B685D4A934240F09D803B68CD
S11329B01B7A002B1FD03B681B7A012B19D03B6874
S11329C01B7A022B13D03B681B7A032B0DD03B6878
S11329D01B7A042B07D03B681B7A052B01D10723F4
S11329E00AE0FF2308E0042306E0042304E00123B3
S11329F002E0052300E002237A68D3753B685B7A22
S1132A00002B1FD03B685B7A012B19D03B685B7AA3
S1132A10022B13D03B685B7A032B0DD03B685B7AA7
S1132A20042B07D03B685B7A052B01D107230AE00E
S1132A30FF2308E0042306E0042304E0012302E06A
S1132A40052300E002237A6813763B681B7A002B87
S1132A501FD03B681B7A012B19D03B681B7A022BD1
S1132A6013D03B681B7A032B0DD03B681B7A042BD5
S1132A7007D03B681B7A052B01D10B230AE0FF2307
S1132A8008E00C2306E0022304E0092302E00A2301
S1132A9000E00C237A68D3763B685B7A002B1FD066
S1132AA03B685B7A012B19D03B685B7A022B13D00D
S1132AB03B685B7A032B0DD03B685B7A042B07D011
S1132AC03B685B7A052B01D10C230AE0FF2308E065
S1132AD00D2306E0032304E00A2302E00B2300E0B5
S1132AE00D237A68137701E00D4B10E03B685A7CA4
S1132AF07B685A763B689A7C7B685A773B68DA7CB9
S1132B007B689A763B681A7D7B689A77002318461F
S1132B100C37BD465DF8047B704700BF004401409C
S1132B20037000F080B584B002AF78600B46FB7090
S1132B30FB78002B53D07B68DA7D7B68DB7E104604
S1132B4019460422012302F0F3FA7B681A7E7B689B
S1132B501B7F104619460222012302F0E9FA7B6822
S1132B6093F83130022B20D17B685A7E7B685B7FDF
S1132B70104619460122002302F0DAFA7B689A7E95
S1132B807B689B7F104619460422002302F0D0FA8A
S1132B907B685A7E7B685B7F19460123009310464D
S1132BA001220123FEF76EFF6CE07B6893F831305D
S1132BB0032B67D17B685A7E7B685B7F104619467E
S1132BC00122002302F0B4FA7B689A7E7B689B7F23
S1132BD0104619460422002302F0AAFA52E07B6848
S1132BE0DA7D7B68DB7E104619460022002302F062
S1132BF09FFA7B681A7E7B681B7F10461946002269
S1132C00002302F095FA7B6893F83130022B20D12F
S1132C107B685A7E7B685B7F10461946002200233E
S1132C2002F086FA7B689A7E7B689B7F1046194681
S1132C300022002302F07CFA7B685A7E7B685B7F6B
S1132C40194600230093104601220123FEF71AFFC0
S1132C5018E07B6893F83130032B13D17B685A7EDC
S1132C607B685B7F104619460022002302F060FA5D
S1132C707B689A7E7B689B7F10461946002200235E
S1132C8002F056FA002318460837BD4680BD00BF3F
S1132C9080B485B000AF7860234B1B7883F00103C8
S1132CA0DBB2002B10D00023BB6007E01F4ABB68D7
S1132CB0002142F82310BB680133BB60BB68032BBF
S1132CC0F4D9194B01221A700023FB730023BB6053
S1132CD017E0164ABB6852F82330002B06D0134A7B
S1132CE0BB6852F823207B689A4207D10F49BB681E
S1132CF07A6841F823200123FB7305E0BB680133A4
S1132D00BB60BB68032BE4D9FB7B83F00103DBB21C
S1132D10002B01D0064B00E0002318461437BD46B3
S1132D205DF8047B704700BF9009002094090020DF
S1132D30027000F080B485B000AFF860B9607A60CA
S1132D40FB68BA685A62FB685B6A00221A80FB68F7
S1132D505B6A00225A80FB685B6A00229A80FB68E7
S1132D60002283F82C20FB687A689A62FB689B6ACD
S1132D7000221A80FB689B6A00225A80FB689B6AC7
S1132D8000229A80FB68002283F82D20FB68002231
S1132D9083F82F201437BD465DF8047B704700BFCD
S1132DA080B582B000AF7860FDF752FE7B685B7F30
S1132DB018460949FDF75CFE7B6800229A757B681A
S1132DC000221A757B6802225A757868FEF704FFA0
S1132DD00837BD4680BD00BF391B000080B582B0F6
S1132DE000AF7860FDF726FB7B68043318460021AA
S1132DF0FDF7CEFA0346002B01D0094B0BE07B68AC
S1132E00083318460021FDF7C3FA0346002B01D00E
S1132E10034B00E0002318460837BD4680BD00BFC1
S1132E200E7000F0B0B58CB000AF78603960984B8C
S1132E3007F10C041D460FCD0FC495E8070084E884
S1132E4007007B68002B01D1924B8EE13B68002B7D
S1132E5001D1914B89E178680021342203F0E9F92A
S1132E607868FFF715FFF862FB6A002B01D0FB6A54
S1132E707BE13B681A7C7B6883F831203B681A68E5
S1132E807B681A607B68002283F832203B681B68E9
S1132E90824A93420AD17B68814A1A627B68814ADA
S1132EA0DA607B684FF440221A6171E03B681B686A
S1132EB07D4A93420AD17B687C4A1A627B687C4AC9
S1132EC0DA607B684FF450221A6161E03B681B684A
S1132ED0784A93420AD17B68774A1A627B68774AB8
S1132EE0DA607B684FF460221A6151E03B681B682A
S1132EF0734A93420AD17B68724A1A627B68724AA7
S1132F00DA607B684FF470221A6141E03B681B6809
S1132F106E4A93420AD17B686D4A1A627B686D4A95
S1132F20DA607B684FF480121A6131E03B681B68F9
S1132F30694A93420AD17B68684A1A627B68684A84
S1132F40DA607B684FF488121A6121E03B681B68E1
S1132F50644A93420AD17B68634A1A627B68634A73
S1132F60DA607B684FF490121A6111E03B681B68C9
S1132F705F4A93420AD17B685E4A1A627B685E4A62
S1132F80DA607B684FF498121A6101E0424BECE07E
S1132F903B689A693B68DB69786811461A46FFF713
S1132FA0C9FE3B685B687B613B685B89BB833B68AC
S1132FB09B897B833B689B7B3B763B68DB7BBB7756
S1132FC005237B764D48012100F0F2FD4C48012198
S1132FD000F0EEFD7B681B6A1846012100F0E8FD55
S1132FE000233B733B681A6807F10C03104619462B
S1132FF002F0F8FB3B681B6803225A673B681A68B7
S11330003B681B689B6F23F4E06323F00703396874
S1133010097A09020B433968497A0B439367786844
S11330203968FFF735F8F862FB6A002B01D0FB6AB8
S11330309BE078680121FFF775FDF862FB6A002BBD
S113304001D0FB6A91E001F0C3FDB8623B681B7CD0
S1133050032B57D13B681B683A681268526F42F0E1
S113306030025A673B681B683A681268526E42F035
S113307004025A663B681B683A6892F8202011469D
S11330803A6892F8212012020A43DA6741E000BF4D
S113309064620000027000F0037000F00000014060
S11330A00072040001000C000004014000820400CE
S11330B001000D00000801400092040001000E0010
S11330C0000C014000A2040001000F0000100140A8
S11330D000B20400010010000014014000C204000A
S11330E00100110000400140004E040001001200E4
S11330F000440140005E040001001300404105004B
S1133100005508003B681B7C022B02D17868FFF74E
S113311047FE3B681B6818464FF0FF31FEF7CAFBB9
S11331203B681B7C032B06D13B681B6818460521B2
S113313002F00EFB05E03B681B681846042102F010
S113314007FB3B681B684FF44062DA60FDF772F9D5
S11331507868FFF743FEF862B86A01F049FDFB6A3C
S1133160002B01D0FB6A00E0002318463037BD462F
S1133170B0BD00BF80B588B000AFF860B9607A60B8
S1133180F868B9687A68FEF761FFB861BB69002B1B
S113319001D0BB697CE0022001F038FD0346FB75D9
S11331A004E0FB7D002B01D0FDF754FAFB689B6A19
S11331B09B889BB2002B05D0FB6893F82E30DBB2C2
S11331C0002BEED0FB6893F83230002B06D1FB685D
S11331D01B681B6903F00203FB610DE0FB6893F8B5
S11331E03230012B06D1FB681B689B6803F0020395
S11331F0FB6101E00023FB61FB69002B02D1F8684D
S1133200FEF712FEFB68012283F83020FB6893F876
S11332103230002B18D109E0FB681968BB685A1CCE
S1133220BA601B780846194602F0E6FB7B685A1E12
S11332307A60002BF0D100BFFB681B681B6903F0A8
S11332402003002BF8D01CE0FB6893F83230012BEC
S113325017D109E0FB681968BB685A1CBA601B786F
S11332600846194602F088F97B685A1E7A60002BDA
S1133270F0D100BFFB681B689B6803F00803002BB8
S1133280F8D0FB69002B02D1F868FEF711FE002389
S113329018462037BD4680BD80B582B000AF786047
S11332A07B68002B01D1104B1AE07B6893F82E3019
S11332B0DBB2002B0AD17868FEF724FC0346002B0E
S11332C004D17B685B681846FDF716F97B6893F8B0
S11332D02E30DBB20133DAB27B6883F82E20002370
S11332E018460837BD4680BD027000F080B582B034
S11332F000AF78607B68002B01D1144B22E07B681F
S113330093F82E30DBB2002B1BD07B6893F82E3061
S1133310DBB2012B0AD17868FEF7F4FB0346002BDD
S113332004D17B685B681846FDF71AF97B6893F84B
S11333302E30DBB2013BDAB27B6883F82E20002307
S113334000E0034B18460837BD4680BD027000F00C
S1133350057000F080B58CB000AFF860B9607A6099
S11333603B60F868B9687A68FEF770FEF862FB6A39
S1133370002B01D0FB6A39E0BB687B617B68BB61D1
S11333807B68FB613B683B621A4B7B62FB68996A12
S113339007F1140207F11003084611461A46FEF716
S11333A081FCF862FB6A002B01D0FB6A1EE0FB681B
S11333B093F82D30DBB283F00103DBB2002B14D081
S11333C001F006FCB862FB689B6A9B889BB2002BE9
S11333D008D03B69F8681946FEF79EFDFB68012298
S11333E083F83020B86A01F003FC00231846303714
S11333F0BD4680BD017000F080B483B000AF78603A
S113340039607B683A685A610C37BD465DF8047BC5
S1133410704700BF80B483B000AF78607B68DB681E
S113342018460C37BD465DF8047B704780B582B002
S113343000AF0948FFF7EEFF78607B6803F01003E4
S1133440002B06D004481021FFF7D6FF034B0122BE
S11334501A700837BD4680BD00800140A4090020D1
S113346080B487B000AFF860B9607A60FB6803F19C
S11334700473DA00BB6813449B007B617B697A6840
S11334801A601C37BD465DF8047B704780B485B074
S113349000AF786039607B6803F10473DA003B683D
S11334A013449B00FB60FB681B6818461437BD4639
S11334B05DF8047B704700BF80B485B000AF7860CE
S11334C039607B6803F1C063FB60FB683A681A608B
S11334D01437BD465DF8047B704700BF80B485B0E7
S11334E000AF786039607B6803F18063FB60FB6840
S11334F03A681A601437BD465DF8047B704700BF14
S113350080B483B000AF78607B68012202FA03F3D1
S113351018460C37BD465DF8047B704780B500AF94
S113352000BF04481221FFF7B1FF0346002BF8D176
S113353080BD00BF04300E4080B500AFFFF7EEFF42
S1133540034B5B6803F440331B0CDBB2184680BDAD
S113355000300E4080B584B000AF78600123FB607A
S11335607B68124A934204D80023FB600023BB60AB
S113357008E07B680E4A934202D80123BB6001E055
S11335800223BB600B481021FA68FFF769FF094961
S1133590084BD3F8003123F04072BB681B06134379
S11335A0C1F800311037BD4680BD00BF0048E801B6
S11335B00090D00300400E4080B483B000AF054BB0
S11335C01B687B607B6818460C37BD465DF8047B3E
S11335D0704700BF2400002080B582B000AFFCF724
S11335E063FE7860064BD3F8003103F4F8531B0AEA
S11335F001337A6802FB03F318460837BD4680BDE1
S113360000400E4080B582B000AF0D4800F0FAFCD7
S11336100346FB70FB78072B05D0092B07D1FCF779
S113362043FE786006E0FFF7C7FF786002E00023FE
S11336307B6000BF7B6818460837BD4680BD00BF6D
S113364006000C0080B584B000AF78607B68002B66
S113365002D0012B06D00BE01E4800F0D3FC034639
S1133660FB7207E01C4800F0CDFC0346FB7201E04E
S113367000232AE0FB7A013B072B22D801A252F84F
S113368023F000BFA5360000C3360000C336000097
S1133690B3360000C3360000C3360000AB3600006A
S11336A0BB3600000023FB600EE0FFF785FFF860E7
S11336B00AE0FCF731FEF86006E0FFF78DFFF860E2
S11336C002E00023FB6000BFFB6818461037BD46CC
S11336D080BD00BF98002E009900300080B582B0F4
S11336E000AF194800F08EFC0346FB70FB78043BE6
S11336F0062B21D801A252F823F000BF2137000085
S11337001937000039370000293700003937000025
S113371039370000313700000C4B1B687B600EE02A
S1133720FCF7FAFD78600AE0FFF746FF786006E0F0
S1133730074B1B687B6002E000237B6000BF7B6853
S113374018460837BD4680BD0A7B32000C000020B5
S11337502800002080B584B000AF78607B68002B1F
S11337601AD11A4800F04EFC0346FB7200BFFB7AE4
S1133770043B062B22D801A252F823F0A5370000FF
S11337809D370000BD370000AD370000BD37000095
S1133790BD370000B5370000002313E00C4B1B6855
S11337A0FB600EE0FCF7B8FDF8600AE0FFF704FFE9
S11337B0F86006E0074B1B68FB6002E00023FB6037
S11337C000BFFB6818461037BD4680BD0B7C340033
S11337D00C0000202800002080B582B000AF2148F2
S11337E000F010FC0346FB70FB78023B092B31D838
S11337F001A252F823F000BF453800004D38000004
S1133800293800003D3800005538000055380000C4
S113381055380000553800002138000031380000C8
S1133820114B1B687B6018E0FCF776FD786014E0B0
S1133830FCF772FD03465B007B600EE00B4B1B68DC
S11338407B600AE0FCF798FD786006E0FCF780FDF9
S1133850786002E000237B6000BF7B68184608376D
S1133860BD4680BD0C7F3600280000200C000020DF
S113387080B485B000AF786039604FF080435B68F6
S113388003F04073FB600023BB6013E01A4ABB687B
S1133890DB0013441A793B68DBB29A4207D1164A1B
S11338A0BB6852F833207B689A4200D305E0BB68BA
S11338B00133BB60BB68062BE8D9BB68072B02D178
S11338C00323FB6005E00C4ABB68DB0013445B790F
S11338D0FB60FB681B06FB604FF080414FF08043A8
S11338E05B6823F04072FB6813434B601437BD469A
S11338F05DF8047B704700BF9062000080B582B021
S113390000AF4FF080431B6C002B14BF0123002336
S1133910FB714FF0804341F671321A64FCF7BAFC34
S1133920034618460021FFF7A3FFFB79002B03D0C1
S11339304FF0804300221A640837BD4680BD00BFA3
S113394080B584B000AF786039600B4BFB603B6896
S1133950022B01D1094BFB607A68FB689A4204D9B7
S113396007480849FFF7A8FD03E005480549FFF7A4
S1133970B5FD1037BD4680BD80D543020024F40058
S1133980000100400202020080B582B000AF7860FE
S113399039607B680A4A934209D93B68002B06D1F7
S11339A04FF080404FF48051FFF786FD05E04FF063
S11339B080404FF48051FFF791FD0837BD4680BD2C
S11339C080F0FA0280B584B000AF786039604FF0BF
S11339D080431B6C002B14BF01230023FB734FF0A7
S11339E0804341F671321A6478683968FFF740FF02
S11339F078683968FFF7A4FF78683968FFF7C4FF6F
S1133A00FB7B002B03D04FF0804300221A64103755
S1133A10BD4680BD80B400AF044B5B6A03F0300345
S1133A201B091846BD465DF8047B704700400E40F4
S1133A3080B483B000AF78600649064B5B6A23F01C
S1133A4030027B681B0113434B620C37BD465DF8A3
S1133A50047B704700400E4090B585B000AF78609D
S1133A600023BB607B683F4A93420DD03D4A93429A
S1133A7003D83D4A934207D007E03C4A934203D01F
S1133A803B4A934200D000E000BF786800F0BAFAE5
S1133A900346FB607B68334A934214D0314A934215
S1133AA003D8314A934207D022E0304A934211D0DE
S1133AB02F4A934215D01BE02E4BD3F8803003F0ED
S1133AC00703FB6014E02B4BD3F8843003F00703A7
S1133AD0FB600DE0274BD3F88C3003F00703FB6049
S1133AE006E0244BD3F8883003F00703FB6000BFE3
S1133AF0FB68042B2DD801A252F823F04D3B0000A3
S1133B00113B0000193B0000293B0000213B000051
S1133B10FCF71EFCB8601FE0FCF72EFCB8601BE04D
S1133B20FCF720FCB86017E0FCF792FB0446114B4D
S1133B30D3F8003103F040731B0E01331846FFF72E
S1133B40DFFC0346B4FBF3F3BB6005E00023BB607A
S1133B5002E00023BB6000BFBB6818461437BD46B3
S1133B6090BD00BF03001C0002001A0004001E00E8
S1133B700500200000400E4080B483B000AF7860A0
S1133B800A4BD3F8443103F00103002B00D007E0C3
S1133B9000BF064BD3F840217B681340002BF8D1BB
S1133BA00C37BD465DF8047B704700BF00400E40F3
S1133BB080B586B000AF78600B46FB7000233B6194
S1133BC07B681B0A03F00F03013B0E2B7CD801A278
S1133BD052F823F0113C00001D3C0000C93C0000D9
S1133BE0C93C0000173C0000293C0000333C0000A5
S1133BF03D3C0000493C00009F3C0000553C000057
S1133C00773C0000C93C0000233C0000993C0000C4
S1133C102F4B7B6146E02F4B7B6143E02E4B7B6156
S1133C2040E02E4B7B613DE02D4B7B6101233B61EA
S1133C3038E02C4B7B6110233B6133E02A4B7B61E2
S1133C404FF480733B612DE0284B7B614FF480334C
S1133C503B6127E0264B7B61FB78002B14BF0123DB
S1133C600023DBB283F00103DBB2FB70FB7803F0CB
S1133C700103FB7016E01F4B7B61FB78002B14BF24
S1133C8001230023DBB283F00103DBB2FB70FB787A
S1133C9003F00103FB7005E0174B7B6102E0174B57
S1133CA07B6100BF7B681B0B03F01F03FB603B6958
S1133CB0002B02D03869FFF75FFFFB787869F96859
S1133CC01A46FFF7CDFB00E000BF1837BD4680BDA4
S1133CD000400E40B0400E40C0400E40C4400E4074
S1133CE0E0400E40E8400E40EC400E40F0400E40F4
S1133CF060410E4064410E40F0410E4050410E4080
S1133D0080B584B000AF78607B6803F47813B3F5B2
S1133D10C01F00F00581B3F5C01F31D8B3F5402FA3
S1133D2000F02A81B3F5402F12D8B3F5802F62D06A
S1133D30B3F5802F05D8002B59D0B3F5003F6DD0D3
S1133D404EE1B3F5002F65D0B3F5202F75D047E1D0
S1133D50B3F5901F00F09480B3F5901F07D8B3F526
S1133D60602F00F00D81B3F5801F7AD038E1B3F5F0
S1133D70A01F00F08A80B3F5B01F00F0BF802FE1D0
S1133D80B3F5301F00F0DF80B3F5301F16D8B3F55C
S1133D90001F00F0EC80B3F5001F07D8B3F5D01F67
S1133DA05AD0B3F5E01F00F0A48019E1B3F5181F51
S1133DB07DD0B3F5281F00F08D8011E1B3F5481FC5
S1133DC000F00181B3F5481F08D8B3F5381F00F09F
S1133DD0DB80B3F5401F00F0E68001E1B3F5501F2E
S1133DE000F0F580B3F5581F00F0F680F8E0FCF71A
S1133DF05BFAF860F7E0FCF757FAF8607C4BD3F80D
S1133E000C217C4B13401B0A0133FA68B2FBF3F319
S1133E10FB60E8E0FCF748FAF860E4E0FCF744FAF9
S1133E20F860734BD3F80821724B13401B0A01331B
S1133E30FA68B2FBF3F3FB60D5E0FCF735FAF860FF
S1133E406B4BD3F8143103F4F8531B0A0133FA68AB
S1133E50B2FBF3F3FB60C6E06748FFF7FDFDF860D3
S1133E60C1E06548FFF7F8FDF860614BD3F82031F5
S1133E7003F470231B0C1A46FB68D340FB60B2E0CA
S1133E805E48FFF7E9FDF860ADE05B48FFF7E4FD4D
S1133E90F860574BD3F8203103F00F031846FFF7AF
S1133EA02FFB0246FB68B3FBF2F3FB609BE0524836
S1133EB0FFF7D2FDF8604E4BD3F8203103F4E04312
S1133EC01B0B1846FFF71CFB0246FB68B3FBF2F31F
S1133ED0FB6088E04848FFF7BFFDF860444BD3F827
S1133EE0203103F440731B0A1A46FB68D340FB607D
S1133EF079E04348FFF7B0FDF86074E04048FFF70D
S1133F00ABFDF8603A4BD3F8283103F003031846AD
S1133F10FFF7F6FA0246FB68B3FBF2F3FB6062E0DC
S1133F203748FFF799FDF860314BD3F8283103F097
S1133F3030031B091846FFF7E3FA0246FB68B3FB9C
S1133F40F2F3FB604FE02E48FFF786FDF860284B44
S1133F50D3F8283103F440531B0B04331846FFF7FE
S1133F60CFFA0246FB68B3FBF2F3FB603BE0234865
S1133F70FFF772FDF86036E0FFF744FBF86032E0CB
S1133F80FFF71AFBF8602EE00020FFF75BFBF860F8
S1133F90174BD3F85C3103F003030133FA68B2FB27
S1133FA0F3F3FB601FE00120FFF74CFBF860104BBC
S1133FB0D3F85C3103F440331B0C0133FA68B2FBD1
S1133FC0F3F3FB600FE0FFF789FBF8600BE00020E0
S1133FD0FFF7C0FBF86006E0FFF7FEFBF86002E0C5
S1133FE00023FB6000BFFB6818461037BD4680BD48
S1133FF000400E4000FF010002001A0005002000EE
S113400003001C0080B485B000AF78600123FB730B
S11340107B6803F00F03BB60BB68013B0B2B00F212
S1134020468101A252F823F0594000008B40000061
S1134030BB400000AF4200000141000031410000DC
S1134040AF4200005541000097410000DB410000F1
S11340501B4200005B4200009C4BD3F8943003F0F9
S11340600703032B07D0042B02D0022B06D008E051
S11340700223FB7308E00323FB7305E00423FB73B3
S113408002E00523FB7300BF19E1904BD3F88030A5
S113409003F00703022B06D0042B07D0012B08D111
S11340A00323FB7308E00223FB7305E00C23FB737B
S11340B002E00123FB7300BF01E1844BD3F8843099
S11340C003F00703013B032B16D801A252F823F097
S11340D0E1400000E7400000F3400000ED40000034
S11340E00323FB730BE00223FB7308E00C23FB7335
S11340F005E00623FB7302E00123FB7300BFDEE04F
S1134100724BD3F8883003F00703022B06D0042B3C
S113411007D0012B08D10323FB7308E00223FB73B0
S113412005E00C23FB7302E00123FB7300BFC6E030
S1134130664B1B6F03F00303002B04D0012B05D146
S11341400923FB7305E00723FB7302E00123FB73E0
S113415000BFB4E05D4BD3F85C3103F03003102BA7
S11341600CD0102B02D8002B05D010E0202B08D047
S1134170302B09D00BE00123FB730BE00723FB7307
S113418008E00423FB7305E00823FB7302E001232A
S1134190FB7300BF93E04D4BD3F85C3103F4401341
S11341A0B3F5801F0FD0B3F5801F02D8002B07D0C2
S11341B085E0B3F5001F09D0B3F5401F09D07EE0B8
S11341C00123FB7308E00723FB7305E00423FB735F
S11341D002E00823FB7300BF71E03C4BD3F860316D
S11341E003F00303032B65D801A252F823F000BFA8
S11341F001420000074200000D420000134200008B
S11342000523FB7308E00423FB7305E00723FB731A
S113421002E00A23FB7300BF4CE02C4BD3F864315B
S113422003F00303032B47D801A252F823F000BF85
S113423041420000474200004D420000534200004A
S11342400523FB7308E00423FB7305E00723FB73DA
S113425002E00A23FB7300BF2EE01C4BD3F8F031BD
S113426003F00703052B29D801A252F823F000BF5D
S1134270894200008F420000954200009B420000EA
S1134280A1420000A74200000A23FB730EE00423AE
S1134290FB730BE00B23FB7308E00523FB7305E0C2
S11342A00223FB7302E00323FB7300BF06E0002339
S11342B0FB7304E000BF02E000BF00E000BFFB7B33
S11342C018461437BD465DF8047B704700400E4025
S11342D080B58AB000AF78600B46FB7003237B6225
S11342E0032387F823300023BB6100237B617B68B1
S11342F0112B19D1FB78042B03D1FCF70DF878614D
S11343000BE0FB78052B08D100F08AFA0246C04B7B
S11343109A4202D900F084FA78617B69002B03D0B9
S11343207869002100F036FD7B6803F00F033B61E0
S11343303B69013B0B2B00F25E8201A252F823F091
S1134340714300003F440000694400004D440000F4
S11343505B44000009450000F747000027450000C2
S11343609D45000035460000B74600003B4700006D
S1134370FB78023B0A2B00F2408201A252F823F0A0
S1134380AD430000B9430000C5430000D74300001B
S1134390FB470000FB470000FB470000FB47000011
S11343A0FB470000FB470000FB47000004237B623F
S11343B0002387F8233017E003237B62012387F867
S11343C0233011E002237B62022387F823309148D3
S11343D0FFF7C0F808E001237B62032387F823304A
S11343E08C48FFF7B7F800BF97F82330184601212F
S11343F0012200F021FAFFF781FA7B69002B01D03A
S1134400FFF78CF8844A7B6A53678448FFF778FC8B
S113441003461846FFF79EF8FBF71AFFF860FFF70C
S11344208BF80346F8681946FFF7CCFA7B69002B32
S113443004D10020012100F0ADFCEBE1EAE1BB690D
S1134440002B01D0BB6900E0754BBB61BB69002B3D
S113445001D0BB6900E0734BBB61BB69002B01D089
S1134460BB6900E0704BBB61BB69002B01D0BB6929
S113447000E06E4BBB61FB78013B0B2B00F2BF816C
S113448001A252F823F000BFB9440000BF44000069
S1134490CF440000FF470000FF470000DF44000056
S11344A0FF470000FF470000FF470000FF470000F0
S11344B0FF470000FB4400000023FB6120E00020D4
S11344C00121012200F0B8F90223FB6118E0012068
S11344D00121012200F0B0F90123FB6110E0FBF798
S11344E0B7FE03461846FFF735F85148002101226C
S11344F0FEF7B6FF0323FB6102E00423FB6100BF68
S1134500BB69FA691A6085E1FB78072B02D0092B95
S113451004D07FE1404B00221A6703E03E4B0122A6
S11345201A6700BF76E1FB78013B072B00F2698133
S113453001A252F823F000BF5945000003480000CF
S1134540034800006F4500000348000003480000D2
S11345505F4500007F4500000023FB6112E004205A
S11345600121012200F068F90123FB610AE0022025
S11345700121012200F060F90223FB6102E0032320
S1134580FB6100BF2449244BD3F85C3123F0300293
S1134590FB691B011343C1F85C313BE1FB78013B30
S11345A0072B00F2308101A252F823F0CD45000020
S11345B00748000007480000E345000007480000E2
S11345C007480000D3450000F34500000023FB61C9
S11345D012E004200121012200F02EF90123FB61E5
S11345E00AE002200121012200F026F90223FB61E6
S11345F002E00323FB6100BF0749074BD3F85C319A
S113460023F44012FB691B051343C1F85C3101E13B
S1134610002D31010148E80100400E40000508006A
S113462080400E408C400E4088400E4084400E4036
S1134630B0400E40FB78043B062B00F2E68001A25A
S113464052F823F071460000614600000B48000058
S1134650814600000B4800000B4800009146000012
S113466003200121012200F0E7F80023FB6117E099
S113467002200121012200F0DFF80123FB610FE099
S113468004200121012200F0D7F80223FB6107E096
S113469005200121012200F0CFF80323FB6100BFB4
S11346A05E495E4BD3F8603123F00302FB69134388
S11346B0C1F86031AEE0FB78043B062B00F2A78022
S11346C001A252F823F000BFF5460000E5460000C1
S11346D00F480000054700000F4800000F48000085
S11346E01547000003200121012200F0A5F8002352
S11346F0FB6117E002200121012200F09DF8012353
S1134700FB610FE004200121012200F095F802234F
S1134710FB6107E005200121012200F08DF803234D
S1134720FB6100BF3D493D4BD3F8643123F00302E4
S1134730FB691343C1F864316CE0FB78023B092B3D
S113474067D801A252F823F0C1470000D147000006
S113475081470000B14700001348000013480000DF
S113476013480000134800007147000091470000FF
S113477005200121012200F05FF80023FB612FE0F6
S113478002200121012200F057F80123FB6127E0F8
S1134790FBF7C2FD214A214B5B6A43F008035362D5
S11347A002200121012200F047F80223FB6117E0F7
S11347B003200121012200F03FF80323FB610FE0F5
S11347C000200121012200F037F80423FB6107E0F7
S11347D001200121012200F02FF80523FB6100BF15
S11347E00E490E4BD3F8F03123F00702FB69134353
S11347F0C1F8F0310EE000BF0CE000BF0AE000BFDA
S113480008E000BF06E000BF04E000BF02E000BF14
S113481000E000BF2837BD4680BD00BF00400E4009
S113482080B400AF034B1B681846BD465DF8047B9B
S1134830704700BF0C00002080B588B000AF03466D
S1134840FB710B46BB7113467B71FB79052B00F2A0
S1134850AE8001A252F823F0B9480000A748000036
S1134860834800007148000095480000CF480000CC
S113487001237B6102233B610123FB610023BB61B4
S113488030E004237B6108233B610323FB610223A3
S1134890BB6127E010237B6120233B610523FB617F
S11348A00423BB611EE040237B6180233B6107231B
S11348B0FB610623BB6115E04FF480737B614FF409
S11348C000733B610923FB610823BB610AE04FF4D9
S11348D080637B614FF400633B610B23FB610A231C
S11348E0BB6100BFBB79002B55D00023FB73FB7960
S11348F0022B11D1FFF78EF80346012B0CD12E4B5E
S1134900DB6B0123FB732D4B5B6A03F00303032B67
S113491002D10220FFF78CF8284A7B69136600BF96
S11349202748B969FEF7B2FD0346002BF8D07B791E
S1134930002B2FD000BF2248F969FEF7A7FD0346DC
S1134940002BF8D0FB79022B24D1FB7B002B21D048
S11349501A4B5B6A03F00303032B03D002200021EC
S113496000F0E0F8022000F02DF8B86002200021E9
S11349700122FFF761FF0220B96800F05DF80F4AD9
S11349807B69136600BF0E48F969FEF77FFD034695
S1134990002BF8D00CE0094A3B69136600BF0848B5
S11349A0B969FEF773FD0346002BF8D100E000BFA0
S11349B02037BD4680BD00BF00300E4000400E4091
S11349C090400E4080B485B000AF0346FB71FB7984
S11349D0013B042B24D801A252F823F0F149000032
S11349E0214A0000FD490000154A0000094A000060
S11349F0104B1B6AC3F30803FB6014E00D4B1B69E7
S1134A0003F07F03FB600EE00A4B9B6803F07F0317
S1134A10FB6008E0074B9B6903F07F03FB6002E047
S1134A200023FB6000BFFB6818461437BD465DF8E1
S1134A30047B704700400E4080B582B000AF03464F
S1134A403960FB71FB79013B042B63D801A252F856
S1134A5023F000BF694A0000154B0000974A00008C
S1134A60EB4A0000C14A00003B68C3F308033B6003
S1134A7000BF2A481A21FEF709FD0346002BF8D18E
S1134A802749274B1B6A23F4FF7323F001033A6879
S1134A9013430B623FE03B6803F07F033B6000BFBE
S1134AA01E481821FEF7F2FC0346002BF8D11C49DE
S1134AB01B4B1B6923F07F023B6813430B612AE005
S1134AC03B6803F07F033B6000BF14481E21FEF7E0
S1134AD0DDFC0346002BF8D11149114B9B6823F0F0
S1134AE07F023B6813438B6015E03B6803F07F0350
S1134AF03B6000BF09481921FEF7C8FC0346002BA0
S1134B00F8D10749064B9B6923F07F023B681343A6
S1134B108B6100E000BF0837BD4680BD40410E40B8
S1134B2000400E4080B584B000AF03460A46FB71D6
S1134B301346BB71FEF76EFF0346012B03D14FF4FE
S1134B408003FB6009E0BB79002B03D14FF48003A1
S1134B50FB6002E0084BFB6000BF00BF074BD3F8CB
S1134B609020FB681A40FB689A42F7D1012318464B
S1134B701037BD4680BD00BFFF3F473A00400E409E
S1134B8080B483B000AF0346FB7197F90730002B64
S1134B900ADA0D4AFB7903F00F03043B13441B7E2E
S1134BA0DBB25B09DBB208E0084A97F9073013442B
S1134BB093F80033DBB25B09DBB218460C37BD4611
S1134BC05DF8047B704700BF00ED00E000E100E009
S1134BD080B483B000AFEFF310833B603B687B602D
S1134BE072B67B6818460C37BD465DF8047B704787
S1134BF080B483B000AF78607B68002B00D162B6CC
S1134C000C37BD465DF8047B704700BF80B588B0A3
S1134C1000AF0346FB7197F9073013F10C0F04DB67
S1134C2097F90730452B00DC00BFEFF310833B619D
S1134C303B6903F00103002B01D0012336E097F90F
S1134C400730184600F038F80346002B01D0012342
S1134C502CE097F907301846FFF792FFF861EFF35D
S1134C601183FB60FB68BB61BB69002B06D0BB6989
S1134C705A09FB699A4201D8012317E00D4B5B687E
S1134C80C3F308037B617B69002B0ED07B69DBB225
S1134C90103BDBB2DBB25BB21846FFF771FF024692
S1134CA0FB699A4201D8012300E00023184620370B
S1134CB0BD4680BD00ED00E080B485B000AF034682
S1134CC0FB7197F90730002B04DB97F90730452B6C
S1134CD000DC00BF0C4BFB6097F907305A09FB68F6
S1134CE053F82220FB7903F01F0322FA03F303F0A5
S1134CF00103002B0CBF01230023DBB21846143739
S1134D00BD465DF8047B704700E100E080B485B0E7
S1134D1000AF786039607B6803F10473DA003B68A4
S1134D2013449B00FB60FB681B6818461437BD46A0
S1134D305DF8047B704700BF80B500AF00BF044836
S1134D401221FFF7E3FF0346002BF8D180BD00BF1B
S1134D5004300E4080B500AFFFF7EEFF034B5B68F5
S1134D6003F440331B0CDBB2184680BD00300E4008
S1134D7080B483B000AF0346FB71FB79C3F1020337
S1134D801A461023934018460C37BD465DF8047B41
S1134D90704700BF80B584B000AF78600B46FB70ED
S1134DA0154BD3F8003103F4F8531B0A0133BB60ED
S1134DB07B68002B07D1FBF777FA0246BB6803FB3D
S1134DC002F3FB6001E07B68FB600C4B1B78002B5B
S1134DD009D0FB680A4A934205D8FB780220194699
S1134DE000F010F804E0FB780020194600F00AF8FF
S1134DF01037BD4680BD00BF00400E40A80900200A
S1134E00FF2C310190B587B000AF03460A46FB7111
S1134E101346BB711A4BD3F8003103F4F8531B0A41
S1134E2001337B61FBF740FA3861FFF793FF0346D8
S1134E30FB73FA7BFB799A4200D11EE03B697A69E5
S1134E4002FB03F3BB60FB79022B03D13869022117
S1134E50FEF7B8FD0B4CFB791846FFF789FF0346B4
S1134E602361FB79002B03D138690021FEF7AAFDE9
S1134E70BB79002B01D0FFF75FFF1C37BD4690BD07
S1134E8000400E4000300E4080B487B000AFF860A0
S1134E90B9607A60FB6803F10473DA00BB681344F9
S1134EA09B007B617B697A681A601C37BD465DF89C
S1134EB0047B704780B485B000AF786039607B684C
S1134EC003F1C063FB60FB683A681A601437BD469F
S1134ED05DF8047B704700BF80B485B000AF786094
S1134EE039607B6803F18063FB60FB683A681A6091
S1134EF01437BD465DF8047B704700BF80B584B0AD
S1134F0000AFF860B9607A60F868B968FFF7E4FF49
S1134F10F8687968FFF7CEFF1037BD4680BD00BF43
S1134F2080B582B000AF03463960FB71FB79002B7A
S1134F3016D0FB79012B13D0FB79022B10D0FB790F
S1134F40032B0DD0FB79042B0AD0FB79052B07D05A
S1134F50FB79062B04D0FB79072B01D0FB79082BB6
S1134F60FA7913465B0013441B010C3303F18043AD
S1134F7003F508233A68012101FA02F218461146A2
S1134F80FFF7AAFF0837BD4680BD00BF80B582B0D9
S1134F9000AF03463960FB71FB79002B16D0FB7917
S1134FA0012B13D0FB79022B10D0FB79032B0DD0EE
S1134FB0FB79042B0AD0FB79052B07D0FB79062B50
S1134FC004D0FB79072B01D0FB79082BFA7913461F
S1134FD05B0013441B010C3303F1804303F50823E6
S1134FE03A68012101FA02F218461146FFF762FFFE
S1134FF00837BD4680BD00BF80B586B000AFB9603C
S11350007A601A460346FB731346BB7300237B6125
S1135010FB7B002B16D0FB7B012B13D0FB7B022BDD
S113502010D0FB7B032B0DD0FB7B042B0AD0FB7B26
S1135030052B07D0FB7B062B04D0FB7B072B01D071
S1135040FB7B082B7B68072B0ED87B689B001A46DA
S11350500F2303FA02F1FB7B7A68920093402C48F9
S11350601A46FFF74BFF10E07B68083B7B617B69C6
S11350709B001A460F2303FA02F1FB7B7A69920024
S1135080934024481A46FFF739FF7B68072B10D852
S11350907B689B001A46032303FA02F1BB6803F002
S11350A003037A68920093401B481A46FFF726FFD1
S11350B00FE07B699B001A46032303FA02F1BB68E5
S11350C003F003037A699200934014481A46FFF7E9
S11350D015FFBB7B124879681A46FFF7D5FE97F88F
S11350E02030104879681A46FFF7CEFE0E4A7B68D6
S11350F0012101FA03F3C2F8243497F824300B4851
S113510079681A46FFF7C0FE1837BD4680BD00BF58
S11351100084084004840840088408400C84084043
S11351201084084014840840008008402884084003
S113513090B585B000AFB9607B600346FB7313463E
S1135140BB73FB7B002B16D0FB7B012B13D0FB7BAB
S1135150022B10D0FB7B032B0DD0FB7B042B0AD03E
S1135160FB7B052B07D0FB7B062B04D0FB7B072B9B
S113517001D0FB7B082BBB7B002B0DD07B68002B65
S113518005D0FB7B1846B968FFF700FF04E0FB7B02
S11351901846B968FFF7C4FEBB68072B1CD82B4C14
S11351A0FA7B2A48F97B0B465B000B441B01034442
S11351B05968BB689B0018460F238340DB430B40B0
S11351C0B97BB86880008140194313465B001344DF
S11351D01B012344596024E01C4CFA7B1B48F97BD7
S11351E00B465B000B441B01034408331968BB687E
S11351F003F18043083B9B0018460F238340DB43A5
S11352001940B87BBB6803F18043083B9B0000FA5C
S113521003F3194313465B0013441B01234408336F
S11352201960BB7B002B0DD17B68002B05D0FB7B69
S11352301846B968FFF7AAFE04E0FB7B1846B96874
S1135240FFF76EFE1437BD4690BD00BF00800840D6
S113525080B483B000AF0346FB71084997F9073067
S11352605B09FA7902F01F02012000FA02F241F808
S113527023200C37BD465DF8047B704700E100E055
S113528080B483B000AF0346FB71094997F9073036
S11352905B09FA7902F01F02012000FA02F260337E
S11352A041F823200C37BD465DF8047B704700BFEE
S11352B000E100E080B483B000AF03463960FB71C5
S11352C097F90730002B0BDA0D49FB7903F00F0334
S11352D0043B3A68D2B25201D2B20B441A7609E0C6
S11352E0084997F907303A68D2B25201D2B20B4456
S11352F083F800230C37BD465DF8047B704700BF7C
S113530000ED00E000E100E080B487B000AFF86099
S1135310B9607A60FB6803F10473DA00BB68134474
S11353209B007B617B697A681A601C37BD465DF817
S1135330047B704780B485B000AF786039607B68C7
S113534003F18063FB60FB683A681A601437BD465A
S11353505DF8047B704700BF80B582B000AF786011
S11353600B46FB707A68FB7883F00103DBB20448D8
S113537011461A46FFF7C8FF0837BD4680BD00BF77
S11353803420004080B582B000AF78601748012116
S1135390FEF70EFC16497B681B781A067B685B785F
S11353A01B0213437A68927813430B60104B00225C
S11353B01A620F4B0022DA620D4B00225A630C4B27
S11353C04FF00042DA660A4B4FF0FF329A66022031
S11353D0FFF756FF7B68DB7802201946FFF76AFF68
S11353E00220FFF735FF0837BD4680BD0075080071
S11353F00020004080B588B000AFF860B9607A60E2
S1135400FB68DBB21A4601239340BB614C48BB687E
S11354101968FA6813465B0013441B010344803384
S113542019604749BB685B7B1846FA6813465B0002
S113543013441B010B44883318604149BB689B7AB1
S11354401A04BB68DB7A1B051A43BB681B7B5B052C
S113545013431846FA6813465B0013441B010B44BC
S11354608033586036487B6823F00301FA6813469A
S11354705B0013441B01034498331960304ABB6931
S11354809366FFF7A5FB78612D492D4BDA6EBB6956
S11354901343CB66BB681B7A002B05D02849284BE5
S11354A05A6BBB6913434B63BB685B7A002B05D013
S11354B02349234BDA6ABB691343CB62204B1B6835
S11354C0FB61BB681B79002B08D0BB681B79DB43ED
S11354D01B0263F47F43FA691340FB61BB685B7989
S11354E0002B06D0BB685B791B021A46FB69134389
S11354F0FB61BB689B79002B07D0BB689B79DB43BE
S113550063F0FF03FA691340FB61BB68DB79002B8E
S113551005D0BB68DB791A46FB691343FB61084A73
S1135520FB6913600748B969FFF704FF044ABB69C4
S1135530D3637869FFF75CFB2037BD4680BD00BFAD
S1135540002000402820004080B483B000AF786081
S113555039607B681B6C03F00103002B00D006E06C
S113556000BF7B685A6C3B681340002BF9D10C37A1
S1135570BD465DF8047B704780B582B000AF7860AB
S11355800B46FB7000BF7B689B6803F01003002B85
S1135590F9D078684021FFF7D7FFFA787B689A62E0
S11355A00837BD4680BD00BF80B483B000AF7860CB
S11355B0396013493B681B781A463B685B789B004B
S11355C01A433B689B789B011A433B68DB781B01B9
S11355D01A433B681B79DB021A433B685B791B0364
S11355E01A433B689B795B041A437B6804331B01B1
S11355F00B441A600C37BD465DF8047B704700BF4E
S11356000020064080B483B000AF786023497B68F3
S11356101B78002B01D0012200E000227B685B781C
S1135620002B01D0042300E000231A437B689B78FD
S1135630002B01D0102300E000231A437B68DB78A1
S1135640002B01D0202300E000231A437B681B7940
S11356501B021A437B685B791B031A437B689B79A3
S11356609B031A437B68DB79002B02D04FF4004381
S113567000E000231A437B681B7A1B041A437B68EF
S11356805B7A002B02D04FF4003300E00023134375
S11356900B600C37BD465DF8047B70470020064064
S11356A080B586B000AFF860B9607A60FB70BB6803
S11356B0002B03D12448FEF723FBB860FB78202B92
S11356C00CD0202B02DC002B05D03AE0402B08D074
S11356D0602B09D035E010237B6108E008237B614F
S11356E005E006237B6102E004237B6100BFBB6805
S11356F05A017B69796801FB03F35B0813443B613E
S11357007B697A6802FB03F33A69B2FBF3F33B610A
S11357103B69203B3B613B69DB003B613A690B4BD6
S113572013403B61FB681B6823F06002FB681A604E
S1135730FB681A68FB781A43FB681A60FB683A69CD
S11357405A611837BD4680BD40410500F8FF7F000F
S113575080B485B000AF78600B46FB707B68194A53
S113576093421BD07B68184A934217D07B68174A30
S1135770934213D07B68164A93420FD07B68154A34
S113578093420BD07B68144A934207D07B68134A38
S1135790934203D07B68124A934200D100BFFB7846
S11357A0DB43FB60FB6803F00503FB60FB685A0006
S11357B07B68DA60FA787B68DA601437BD465DF896
S11357C0047B7047000001400004014000080140D0
S11357D0000C014000100140001401400040014051
S11357E00044014080B582B000AF786039607B68C6
S11357F03C4A93421BD07B683B4A934217D07B6858
S11358003A4A934213D07B68394A93420FD07B685B
S1135810384A93420BD07B68374A934207D07B685F
S1135820364A934203D07B68354A934200D100BF85
S1135830786800F067F83B689B7C002B05D07B6898
S11358401B6843F080427B681A603B68DB7C002B5A
S113585007D03B681B7D63F07F03DBB21A467B688D
S11358609A653B685B7B1A463B681B8A13433A681C
S1135870D2891A437B685A603B6859683B689A68C6
S11358803B681B7B7868FFF70BFF3B689B7D1B071E
S113589003F0E0423B68DB7D1B0503F4E0031A439D
S11358A07B681A663B685B7D002B05D07B681B68B0
S11358B043F480327B681A607B685B6F23F03002AC
S11358C07B685A677B685B6F3A68127E1A437B6811
S11358D05A673B681B781A467B68DA600837BD460E
S11358E080BD00BF000001400004014000080140E9
S11358F0000C014000100140001401400040014030
S11359000044014080B483B000AF78607B68314AC2
S113591093421BD07B68304A934217D07B682F4A4E
S1135920934213D07B682E4A93420FD07B682D4A52
S113593093420BD07B682C4A934207D07B682B4A56
S1135940934203D07B682A4A934200D100BF7B680C
S113595040F6AA62DA607B6800221A607B6841F232
S113596005025A607B6800229A607B6800225A61B3
S11359707B680022DA647B681E4A9A647B68002292
S11359805A677B6800229A677B680022DA677B6823
S1135990104A934203D07B68104A934202D17B6839
S11359A000221A657B6800229A657B680A4A934242
S11359B007D07B680A4A934203D07B68094A934222
S11359C002D17B680022DA650C37BD465DF8047BA2
S11359D0704700BF0000014000040140000801407E
S11359E0000C01400010014000140140004001403F
S11359F000440140F9FF010080B483B000AF786037
S1135A000B46FB7000BF7B681B6903F04003002B4F
S1135A10F9D0FA787B685A630C37BD465DF8047B8D
S1135A20704700BF80B485B000AFF860B9607A6099
S1135A303B601437BD465DF8047B704780B485B085
S1135A4000AFF860B9607A603B601437BD465DF81A
S1135A50047B704780B485B000AFF860B9607A60A9
S1135A603B601437BD465DF8047B704780B582B057
S1135A7000AF78603960074B73221A70064B1B68BD
S1135A80184604490122054BFDF764FC0837BD465E
S1135A9080BD00BF200A00202C030020255A0000EE
S1135AA080B582B000AF78603960074B76221A70F7
S1135AB0064B1B68184604490122054BFDF74AFCB6
S1135AC00837BD4680BD00BF200A002030030020F7
S1135AD03D5A000080B582B000AF78603960074B52
S1135AE065221A70064B1B68184604490122054BAF
S1135AF0FDF730FC0837BD4680BD00BF200A0020FA
S1135B0034030020555A0000B0B5A0B002AF334BA7
S1135B1007F148041D460FCD0FC40FCD0FC42B68E9
S1135B2023602F4B1A6807F1480310461946FDF706
S1135B3079F92C4B07F124041D460FCD0FC40FCD6A
S1135B400FC42B682360284B1A6807F124031046FE
S1135B501946FDF767F9254B3C461D460FCD0FC48A
S1135B600FCD0FC42B682360214B1A683B461046A7
S1135B701946FDF757F9FBF7E9F81E48FBF7A0F8BB
S1135B8078671D48FBF79CF838671C48FBF798F8C2
S1135B90F866184B1A68002300931046012141F25D
S1135BA08832174BFBF730F9134B1A680023009324
S1135BB0104601216422134BFBF726F90F4B1A6898
S1135BC000230093104601214FF47A720E4BFBF729
S1135BD01BF9002318467837BD46B0BDC8620000E3
S1135BE02C030020EC62000030030020106300004E
S1135BF034030020E00900201C0A0020180A0020B9
S1135C006D5A0000A15A0000D55A000053B94AB990
S1135C10002908BF00281CBF4FF0FF314FF0FF30B0
S1135C2000F03CB882B0EC462DE9005000F01EF8BC
S1135C30DDF804E002B00CBC704700BF2DE9F04170
S1135C40069C154606460F46984600F029F805FBC3
S1135C5001F300FB0838A5FB0023B21A434467EBA9
S1135C600303C4E90023BDE8F08100BF2DE9F0413E
S1135C70069C904606460F461D4600F05FF900FB61
S1135C8005F5A0FB082308FB0155B21A2B4467EB6A
S1135C900303C4E90023BDE8F08100BF704700BFDF
S1135CA000292DE9F043C0F2A6800026002BC0F2A3
S1135CB09C80884694469E46154604460F46002B13
S1135CC03DD18A4259D9B2FA82F33BB1C3F12002E1
S1135CD09F4020FA02F29D4017439C40290C220C5D
